{
  "contractName": "Presale_Swap",
  "abi": [
    {
      "inputs": [
        {
          "internalType": "address",
          "name": "token",
          "type": "address"
        }
      ],
      "stateMutability": "nonpayable",
      "type": "constructor"
    },
    {
      "anonymous": false,
      "inputs": [
        {
          "indexed": false,
          "internalType": "address",
          "name": "account",
          "type": "address"
        }
      ],
      "name": "Paused",
      "type": "event"
    },
    {
      "anonymous": false,
      "inputs": [
        {
          "indexed": true,
          "internalType": "bytes32",
          "name": "role",
          "type": "bytes32"
        },
        {
          "indexed": true,
          "internalType": "bytes32",
          "name": "previousAdminRole",
          "type": "bytes32"
        },
        {
          "indexed": true,
          "internalType": "bytes32",
          "name": "newAdminRole",
          "type": "bytes32"
        }
      ],
      "name": "RoleAdminChanged",
      "type": "event"
    },
    {
      "anonymous": false,
      "inputs": [
        {
          "indexed": true,
          "internalType": "bytes32",
          "name": "role",
          "type": "bytes32"
        },
        {
          "indexed": true,
          "internalType": "address",
          "name": "account",
          "type": "address"
        },
        {
          "indexed": true,
          "internalType": "address",
          "name": "sender",
          "type": "address"
        }
      ],
      "name": "RoleGranted",
      "type": "event"
    },
    {
      "anonymous": false,
      "inputs": [
        {
          "indexed": true,
          "internalType": "bytes32",
          "name": "role",
          "type": "bytes32"
        },
        {
          "indexed": true,
          "internalType": "address",
          "name": "account",
          "type": "address"
        },
        {
          "indexed": true,
          "internalType": "address",
          "name": "sender",
          "type": "address"
        }
      ],
      "name": "RoleRevoked",
      "type": "event"
    },
    {
      "anonymous": false,
      "inputs": [
        {
          "indexed": false,
          "internalType": "address",
          "name": "account",
          "type": "address"
        }
      ],
      "name": "Unpaused",
      "type": "event"
    },
    {
      "inputs": [],
      "name": "DEFAULT_ADMIN_ROLE",
      "outputs": [
        {
          "internalType": "bytes32",
          "name": "",
          "type": "bytes32"
        }
      ],
      "stateMutability": "view",
      "type": "function",
      "constant": true
    },
    {
      "inputs": [
        {
          "internalType": "bytes32",
          "name": "role",
          "type": "bytes32"
        }
      ],
      "name": "getRoleAdmin",
      "outputs": [
        {
          "internalType": "bytes32",
          "name": "",
          "type": "bytes32"
        }
      ],
      "stateMutability": "view",
      "type": "function",
      "constant": true
    },
    {
      "inputs": [
        {
          "internalType": "bytes32",
          "name": "role",
          "type": "bytes32"
        },
        {
          "internalType": "uint256",
          "name": "index",
          "type": "uint256"
        }
      ],
      "name": "getRoleMember",
      "outputs": [
        {
          "internalType": "address",
          "name": "",
          "type": "address"
        }
      ],
      "stateMutability": "view",
      "type": "function",
      "constant": true
    },
    {
      "inputs": [
        {
          "internalType": "bytes32",
          "name": "role",
          "type": "bytes32"
        }
      ],
      "name": "getRoleMemberCount",
      "outputs": [
        {
          "internalType": "uint256",
          "name": "",
          "type": "uint256"
        }
      ],
      "stateMutability": "view",
      "type": "function",
      "constant": true
    },
    {
      "inputs": [
        {
          "internalType": "bytes32",
          "name": "role",
          "type": "bytes32"
        },
        {
          "internalType": "address",
          "name": "account",
          "type": "address"
        }
      ],
      "name": "grantRole",
      "outputs": [],
      "stateMutability": "nonpayable",
      "type": "function"
    },
    {
      "inputs": [
        {
          "internalType": "bytes32",
          "name": "role",
          "type": "bytes32"
        },
        {
          "internalType": "address",
          "name": "account",
          "type": "address"
        }
      ],
      "name": "hasRole",
      "outputs": [
        {
          "internalType": "bool",
          "name": "",
          "type": "bool"
        }
      ],
      "stateMutability": "view",
      "type": "function",
      "constant": true
    },
    {
      "inputs": [],
      "name": "paused",
      "outputs": [
        {
          "internalType": "bool",
          "name": "",
          "type": "bool"
        }
      ],
      "stateMutability": "view",
      "type": "function",
      "constant": true
    },
    {
      "inputs": [
        {
          "internalType": "bytes32",
          "name": "role",
          "type": "bytes32"
        },
        {
          "internalType": "address",
          "name": "account",
          "type": "address"
        }
      ],
      "name": "renounceRole",
      "outputs": [],
      "stateMutability": "nonpayable",
      "type": "function"
    },
    {
      "inputs": [
        {
          "internalType": "bytes32",
          "name": "role",
          "type": "bytes32"
        },
        {
          "internalType": "address",
          "name": "account",
          "type": "address"
        }
      ],
      "name": "revokeRole",
      "outputs": [],
      "stateMutability": "nonpayable",
      "type": "function"
    },
    {
      "inputs": [
        {
          "internalType": "address",
          "name": "newOwner",
          "type": "address"
        }
      ],
      "name": "transferOwnership",
      "outputs": [],
      "stateMutability": "nonpayable",
      "type": "function"
    },
    {
      "inputs": [],
      "name": "swap",
      "outputs": [
        {
          "internalType": "bool",
          "name": "",
          "type": "bool"
        }
      ],
      "stateMutability": "payable",
      "type": "function",
      "payable": true
    },
    {
      "inputs": [
        {
          "internalType": "uint256",
          "name": "price",
          "type": "uint256"
        }
      ],
      "name": "setTokenPrice",
      "outputs": [],
      "stateMutability": "nonpayable",
      "type": "function"
    },
    {
      "inputs": [],
      "name": "getTokenPrice",
      "outputs": [
        {
          "internalType": "uint256",
          "name": "",
          "type": "uint256"
        }
      ],
      "stateMutability": "view",
      "type": "function",
      "constant": true
    },
    {
      "inputs": [],
      "name": "getTokenAmount",
      "outputs": [
        {
          "internalType": "uint256",
          "name": "",
          "type": "uint256"
        }
      ],
      "stateMutability": "view",
      "type": "function",
      "constant": true
    },
    {
      "inputs": [],
      "name": "getBNBAmount",
      "outputs": [
        {
          "internalType": "uint256",
          "name": "",
          "type": "uint256"
        }
      ],
      "stateMutability": "view",
      "type": "function",
      "constant": true
    },
    {
      "inputs": [],
      "name": "getBNBPrice",
      "outputs": [
        {
          "internalType": "uint256",
          "name": "",
          "type": "uint256"
        }
      ],
      "stateMutability": "view",
      "type": "function",
      "constant": true
    },
    {
      "inputs": [],
      "name": "pause",
      "outputs": [],
      "stateMutability": "nonpayable",
      "type": "function"
    },
    {
      "inputs": [],
      "name": "unpause",
      "outputs": [],
      "stateMutability": "nonpayable",
      "type": "function"
    }
  ],
  "bytecode": "0x608060405260006003556729a2241af62c00006005553480156200002257600080fd5b5060405162001ac038038062001ac0833981810160405260208110156200004857600080fd5b81019080805190602001909291905050506000600160006101000a81548160ff021916908315150217905550806001806101000a81548173ffffffffffffffffffffffffffffffffffffffff021916908373ffffffffffffffffffffffffffffffffffffffff160217905550732514895c72f50d8bd4b4f9b1110f0d6bd2c97526600260006101000a81548173ffffffffffffffffffffffffffffffffffffffff021916908373ffffffffffffffffffffffffffffffffffffffff1602179055506200011e6000801b336200012560201b60201c565b50620002bb565b6200013782826200013b60201b60201c565b5050565b6200016981600080858152602001908152602001600020600001620001de60201b620011181790919060201c565b15620001da576200017f6200021660201b60201c565b73ffffffffffffffffffffffffffffffffffffffff168173ffffffffffffffffffffffffffffffffffffffff16837f2f8788117e7eff1d82e926ec794901d17c78024a50270940304540a733656f0d60405160405180910390a45b5050565b60006200020e836000018373ffffffffffffffffffffffffffffffffffffffff1660001b6200021e60201b60201c565b905092915050565b600033905090565b60006200023283836200029860201b60201c565b6200028d57826000018290806001815401808255809150506001900390600052602060002001600090919091909150558260000180549050836001016000848152602001908152602001600020819055506001905062000292565b600090505b92915050565b600080836001016000848152602001908152602001600020541415905092915050565b6117f580620002cb6000396000f3fe6080604052600436106101095760003560e01c80638119c06511610095578063a217fddf11610064578063a217fddf1461042a578063ca15c87314610455578063d547741f146104a4578063f2220c9e146104ff578063f2fde38b1461052a57610109565b80638119c065146103135780638456cb59146103335780639010d07c1461034a57806391d14854146103b957610109565b80633f4ba83a116100dc5780633f4ba83a1461023e5780634b94f50e146102555780635c975abb146102805780636a61e5fc146102ad57806375f91ec8146102e857610109565b80631d8ea1551461010e578063248a9ca3146101395780632f2ff15d1461018857806336568abe146101e3575b600080fd5b34801561011a57600080fd5b5061012361057b565b6040518082815260200191505060405180910390f35b34801561014557600080fd5b506101726004803603602081101561015c57600080fd5b8101908080359060200190929190505050610583565b6040518082815260200191505060405180910390f35b34801561019457600080fd5b506101e1600480360360408110156101ab57600080fd5b8101908080359060200190929190803573ffffffffffffffffffffffffffffffffffffffff1690602001909291905050506105a2565b005b3480156101ef57600080fd5b5061023c6004803603604081101561020657600080fd5b8101908080359060200190929190803573ffffffffffffffffffffffffffffffffffffffff16906020019092919050505061062b565b005b34801561024a57600080fd5b506102536106c4565b005b34801561026157600080fd5b5061026a61074d565b6040518082815260200191505060405180910390f35b34801561028c57600080fd5b50610295610757565b60405180821515815260200191505060405180910390f35b3480156102b957600080fd5b506102e6600480360360208110156102d057600080fd5b810190808035906020019092919050505061076e565b005b3480156102f457600080fd5b506102fd6107f7565b6040518082815260200191505060405180910390f35b61031b6108c5565b60405180821515815260200191505060405180910390f35b34801561033f57600080fd5b50610348610d5e565b005b34801561035657600080fd5b5061038d6004803603604081101561036d57600080fd5b810190808035906020019092919080359060200190929190505050610de7565b604051808273ffffffffffffffffffffffffffffffffffffffff16815260200191505060405180910390f35b3480156103c557600080fd5b50610412600480360360408110156103dc57600080fd5b8101908080359060200190929190803573ffffffffffffffffffffffffffffffffffffffff169060200190929190505050610e18565b60405180821515815260200191505060405180910390f35b34801561043657600080fd5b5061043f610e49565b6040518082815260200191505060405180910390f35b34801561046157600080fd5b5061048e6004803603602081101561047857600080fd5b8101908080359060200190929190505050610e50565b6040518082815260200191505060405180910390f35b3480156104b057600080fd5b506104fd600480360360408110156104c757600080fd5b8101908080359060200190929190803573ffffffffffffffffffffffffffffffffffffffff169060200190929190505050610e76565b005b34801561050b57600080fd5b50610514610eff565b6040518082815260200191505060405180910390f35b34801561053657600080fd5b506105796004803603602081101561054d57600080fd5b81019080803573ffffffffffffffffffffffffffffffffffffffff169060200190929190505050610fda565b005b600047905090565b6000806000838152602001908152602001600020600201549050919050565b6105c8600080848152602001908152602001600020600201546105c3611148565b610e18565b61061d576040517f08c379a000000000000000000000000000000000000000000000000000000000815260040180806020018281038252602f81526020018061170d602f913960400191505060405180910390fd5b6106278282611150565b5050565b610633611148565b73ffffffffffffffffffffffffffffffffffffffff168173ffffffffffffffffffffffffffffffffffffffff16146106b6576040517f08c379a000000000000000000000000000000000000000000000000000000000815260040180806020018281038252602f815260200180611791602f913960400191505060405180910390fd5b6106c082826111e3565b5050565b6106d16000801b33610e18565b610743576040517f08c379a00000000000000000000000000000000000000000000000000000000081526004018080602001828103825260148152602001807f50726573616c6520537761703a202161646d696e00000000000000000000000081525060200191505060405180910390fd5b61074b611276565b565b6000600354905090565b6000600160009054906101000a900460ff16905090565b61077b6000801b33610e18565b6107ed576040517f08c379a00000000000000000000000000000000000000000000000000000000081526004018080602001828103825260148152602001807f50726573616c6520537761703a202161646d696e00000000000000000000000081525060200191505060405180910390fd5b8060038190555050565b60008060018054906101000a900473ffffffffffffffffffffffffffffffffffffffff1673ffffffffffffffffffffffffffffffffffffffff166370a08231306040518263ffffffff1660e01b8152600401808273ffffffffffffffffffffffffffffffffffffffff16815260200191505060206040518083038186803b15801561088157600080fd5b505afa158015610895573d6000803e3d6000fd5b505050506040513d60208110156108ab57600080fd5b810190808051906020019092919050505090508091505090565b60006108cf610757565b15610942576040517f08c379a00000000000000000000000000000000000000000000000000000000081526004018080602001828103825260108152602001807f5061757361626c653a207061757365640000000000000000000000000000000081525060200191505060405180910390fd5b60003490506000600260009054906101000a900473ffffffffffffffffffffffffffffffffffffffff1673ffffffffffffffffffffffffffffffffffffffff1663feaf968c6040518163ffffffff1660e01b815260040160a06040518083038186803b1580156109b157600080fd5b505afa1580156109c5573d6000803e3d6000fd5b505050506040513d60a08110156109db57600080fd5b810190808051906020019092919080519060200190929190805190602001909291908051906020019092919080519060200190929190505050505050915050600060035482840281610a2957fe5b04905060055483600460003373ffffffffffffffffffffffffffffffffffffffff1673ffffffffffffffffffffffffffffffffffffffff16815260200190815260200160002054011115610ae5576040517f08c379a000000000000000000000000000000000000000000000000000000000815260040180806020018281038252601e8152602001807f50726573616c6520537761703a20457863656564204d617820424e422021000081525060200191505060405180910390fd5b8060018054906101000a900473ffffffffffffffffffffffffffffffffffffffff1673ffffffffffffffffffffffffffffffffffffffff166370a08231306040518263ffffffff1660e01b8152600401808273ffffffffffffffffffffffffffffffffffffffff16815260200191505060206040518083038186803b158015610b6d57600080fd5b505afa158015610b81573d6000803e3d6000fd5b505050506040513d6020811015610b9757600080fd5b81019080805190602001909291905050501015610bff576040517f08c379a000000000000000000000000000000000000000000000000000000000815260040180806020018281038252602581526020018061176c6025913960400191505060405180910390fd5b82600460003373ffffffffffffffffffffffffffffffffffffffff1673ffffffffffffffffffffffffffffffffffffffff1681526020019081526020016000205401600460003373ffffffffffffffffffffffffffffffffffffffff1673ffffffffffffffffffffffffffffffffffffffff16815260200190815260200160002081905550600060018054906101000a900473ffffffffffffffffffffffffffffffffffffffff1673ffffffffffffffffffffffffffffffffffffffff1663a9059cbb33846040518363ffffffff1660e01b8152600401808373ffffffffffffffffffffffffffffffffffffffff16815260200182815260200192505050602060405180830381600087803b158015610d1757600080fd5b505af1158015610d2b573d6000803e3d6000fd5b505050506040513d6020811015610d4157600080fd5b810190808051906020019092919050505090508094505050505090565b610d6b6000801b33610e18565b610ddd576040517f08c379a00000000000000000000000000000000000000000000000000000000081526004018080602001828103825260148152602001807f50726573616c6520537761703a202161646d696e00000000000000000000000081525060200191505060405180910390fd5b610de5611361565b565b6000610e108260008086815260200190815260200160002060000161144c90919063ffffffff16565b905092915050565b6000610e418260008086815260200190815260200160002060000161146690919063ffffffff16565b905092915050565b6000801b81565b6000610e6f600080848152602001908152602001600020600001611496565b9050919050565b610e9c60008084815260200190815260200160002060020154610e97611148565b610e18565b610ef1576040517f08c379a000000000000000000000000000000000000000000000000000000000815260040180806020018281038252603081526020018061173c6030913960400191505060405180910390fd5b610efb82826111e3565b5050565b600080600260009054906101000a900473ffffffffffffffffffffffffffffffffffffffff1673ffffffffffffffffffffffffffffffffffffffff1663feaf968c6040518163ffffffff1660e01b815260040160a06040518083038186803b158015610f6a57600080fd5b505afa158015610f7e573d6000803e3d6000fd5b505050506040513d60a0811015610f9457600080fd5b8101908080519060200190929190805190602001909291908051906020019092919080519060200190929190805190602001909291905050505050509150508091505090565b610fe76000801b33610e18565b611059576040517f08c379a00000000000000000000000000000000000000000000000000000000081526004018080602001828103825260148152602001807f50726573616c6520537761703a202161646d696e00000000000000000000000081525060200191505060405180910390fd5b8073ffffffffffffffffffffffffffffffffffffffff163373ffffffffffffffffffffffffffffffffffffffff1614156110fb576040517f08c379a000000000000000000000000000000000000000000000000000000000815260040180806020018281038252601b8152602001807f50726573616c6520537761703a202173616d652061646472657373000000000081525060200191505060405180910390fd5b6111086000801b826105a2565b6111156000801b33610e76565b50565b6000611140836000018373ffffffffffffffffffffffffffffffffffffffff1660001b6114ab565b905092915050565b600033905090565b6111778160008085815260200190815260200160002060000161111890919063ffffffff16565b156111df57611184611148565b73ffffffffffffffffffffffffffffffffffffffff168173ffffffffffffffffffffffffffffffffffffffff16837f2f8788117e7eff1d82e926ec794901d17c78024a50270940304540a733656f0d60405160405180910390a45b5050565b61120a8160008085815260200190815260200160002060000161151b90919063ffffffff16565b1561127257611217611148565b73ffffffffffffffffffffffffffffffffffffffff168173ffffffffffffffffffffffffffffffffffffffff16837ff6391f5c32d9c69d2a47ea670b442974b53935d1edc7fd64eb21e047a839171b60405160405180910390a45b5050565b61127e610757565b6112f0576040517f08c379a00000000000000000000000000000000000000000000000000000000081526004018080602001828103825260148152602001807f5061757361626c653a206e6f742070617573656400000000000000000000000081525060200191505060405180910390fd5b6000600160006101000a81548160ff0219169083151502179055507f5db9ee0a495bf2e6ff9c91a7834c1ba4fdd244a5e8aa4e537bd38aeae4b073aa611334611148565b604051808273ffffffffffffffffffffffffffffffffffffffff16815260200191505060405180910390a1565b611369610757565b156113dc576040517f08c379a00000000000000000000000000000000000000000000000000000000081526004018080602001828103825260108152602001807f5061757361626c653a207061757365640000000000000000000000000000000081525060200191505060405180910390fd5b60018060006101000a81548160ff0219169083151502179055507f62e78cea01bee320cd4e420270b5ea74000d11b0c9f74754ebdbfc544b05a25861141f611148565b604051808273ffffffffffffffffffffffffffffffffffffffff16815260200191505060405180910390a1565b600061145b836000018361154b565b60001c905092915050565b600061148e836000018373ffffffffffffffffffffffffffffffffffffffff1660001b6115ce565b905092915050565b60006114a4826000016115f1565b9050919050565b60006114b783836115ce565b611510578260000182908060018154018082558091505060019003906000526020600020016000909190919091505582600001805490508360010160008481526020019081526020016000208190555060019050611515565b600090505b92915050565b6000611543836000018373ffffffffffffffffffffffffffffffffffffffff1660001b611602565b905092915050565b6000818360000180549050116115ac576040517f08c379a00000000000000000000000000000000000000000000000000000000081526004018080602001828103825260228152602001806116eb6022913960400191505060405180910390fd5b8260000182815481106115bb57fe5b9060005260206000200154905092915050565b600080836001016000848152602001908152602001600020541415905092915050565b600081600001805490509050919050565b600080836001016000848152602001908152602001600020549050600081146116de576000600182039050600060018660000180549050039050600086600001828154811061164d57fe5b906000526020600020015490508087600001848154811061166a57fe5b90600052602060002001819055506001830187600101600083815260200190815260200160002081905550866000018054806116a257fe5b600190038181906000526020600020016000905590558660010160008781526020019081526020016000206000905560019450505050506116e4565b60009150505b9291505056fe456e756d657261626c655365743a20696e646578206f7574206f6620626f756e6473416363657373436f6e74726f6c3a2073656e646572206d75737420626520616e2061646d696e20746f206772616e74416363657373436f6e74726f6c3a2073656e646572206d75737420626520616e2061646d696e20746f207265766f6b6550726573616c6520537761703a204e6f7420656e6f756768204172676820546f6b656e2021416363657373436f6e74726f6c3a2063616e206f6e6c792072656e6f756e636520726f6c657320666f722073656c66a26469706673582212204171e3f57e30102bf9418c90d76a180c0df3a8bf9178bd53372e86602198dca564736f6c63430007040033",
  "immutableReferences": {},
  "source": "// SPDX-License-Identifier: MIT\r\npragma solidity ^0.7.4;\r\n\r\nimport \"@openzeppelin/contracts/token/ERC20/ERC20.sol\";\r\nimport \"@openzeppelin/contracts/utils/Pausable.sol\";\r\nimport \"@openzeppelin/contracts/access/AccessControl.sol\";\r\nimport \"@openzeppelin/contracts/math/SafeMath.sol\";\r\nimport \"@chainlink/contracts/src/v0.7/interfaces/AggregatorV3Interface.sol\";\r\n\r\ncontract Presale_Swap is AccessControl, Pausable {\r\n    using SafeMath for uint256;\r\n    address _tokenArgh;\r\n    AggregatorV3Interface internal _priceFeed;\r\n    uint256 _tokenPrice = 0;\r\n    mapping(address => uint256) _bnbPerUser;\r\n    uint256 _maxBNB_User = 3e18;\r\n\r\n    /**\r\n     * Token Price in USD\r\n     * Decimals: 8\r\n     */\r\n\r\n    /**\r\n     * Network: BSC Mainnet\r\n     * Aggregator: BNB/USD\r\n     * Address: 0x0567F2323251f0Aab15c8dFb1967E4e8A7D42aeE\r\n     */\r\n\r\n    /**\r\n     * Network: BSC Testnet\r\n     * Aggregator: BNB/USD\r\n     * Address: 0x2514895c72f50D8bd4B4F9b1110F0D6bD2c97526\r\n     */\r\n    constructor(address token) {\r\n        _tokenArgh = token;\r\n        _priceFeed = AggregatorV3Interface(\r\n            0x2514895c72f50D8bd4B4F9b1110F0D6bD2c97526\r\n        );\r\n        _setupRole(DEFAULT_ADMIN_ROLE, msg.sender);\r\n    }\r\n\r\n    modifier onlyAdminRole() {\r\n        require(\r\n            hasRole(DEFAULT_ADMIN_ROLE, msg.sender),\r\n            \"Presale Swap: !admin\"\r\n        );\r\n        _;\r\n    }\r\n\r\n    function transferOwnership(address newOwner) public onlyAdminRole {\r\n        require(msg.sender != newOwner, \"Presale Swap: !same address\");\r\n        grantRole(DEFAULT_ADMIN_ROLE, newOwner);\r\n        revokeRole(DEFAULT_ADMIN_ROLE, msg.sender);\r\n    }\r\n\r\n    function swap() public payable whenNotPaused returns (bool) {\r\n        uint256 bnb_amount = msg.value;\r\n        (, int256 price, , , ) = _priceFeed.latestRoundData();\r\n\r\n        uint256 token_amount = (bnb_amount * uint256(price)) / _tokenPrice;\r\n\r\n        require(\r\n            _bnbPerUser[msg.sender] + bnb_amount <= _maxBNB_User,\r\n            \"Presale Swap: Exceed Max BNB !\"\r\n        );\r\n\r\n        require(\r\n            ERC20(_tokenArgh).balanceOf(address(this)) >= token_amount,\r\n            \"Presale Swap: Not enough Argh Token !\"\r\n        );\r\n        _bnbPerUser[msg.sender] = _bnbPerUser[msg.sender] + bnb_amount;\r\n        bool res = ERC20(_tokenArgh).transfer(msg.sender, token_amount);\r\n        return res;\r\n    }\r\n\r\n    function setTokenPrice(uint256 price) public onlyAdminRole {\r\n        _tokenPrice = price;\r\n    }\r\n\r\n    function getTokenPrice() public view returns (uint256) {\r\n        return _tokenPrice;\r\n    }\r\n\r\n    function getTokenAmount() public view returns (uint256) {\r\n        uint256 balance = ERC20(_tokenArgh).balanceOf(address(this));\r\n        return balance;\r\n    }\r\n\r\n    function getBNBAmount() public view returns (uint256) {\r\n        return address(this).balance;\r\n    }\r\n\r\n    function getBNBPrice() public view returns (uint256) {\r\n        (, int256 price, , , ) = _priceFeed.latestRoundData();\r\n        return uint256(price);\r\n    }\r\n\r\n    function pause() external onlyAdminRole {\r\n        super._pause();\r\n    }\r\n\r\n    function unpause() external onlyAdminRole {\r\n        super._unpause();\r\n    }\r\n}\r\n",
  "sourcePath": "F:/MyWork/LianHe/PirateWars/Argh_Token/src/contracts/Presale_Swap.sol",
  "compiler": {
    "name": "solc",
    "version": "0.7.4+commit.3f05b770.Emscripten.clang"
  },
  "schemaVersion": "3.4.1",
  "updatedAt": "2021-10-22T04:32:21.909Z",
  "networkType": "ethereum",
  "devdoc": {
    "kind": "dev",
    "methods": {
      "getRoleAdmin(bytes32)": {
        "details": "Returns the admin role that controls `role`. See {grantRole} and {revokeRole}. To change a role's admin, use {_setRoleAdmin}."
      },
      "getRoleMember(bytes32,uint256)": {
        "details": "Returns one of the accounts that have `role`. `index` must be a value between 0 and {getRoleMemberCount}, non-inclusive. Role bearers are not sorted in any particular way, and their ordering may change at any point. WARNING: When using {getRoleMember} and {getRoleMemberCount}, make sure you perform all queries on the same block. See the following https://forum.openzeppelin.com/t/iterating-over-elements-on-enumerableset-in-openzeppelin-contracts/2296[forum post] for more information."
      },
      "getRoleMemberCount(bytes32)": {
        "details": "Returns the number of accounts that have `role`. Can be used together with {getRoleMember} to enumerate all bearers of a role."
      },
      "grantRole(bytes32,address)": {
        "details": "Grants `role` to `account`. If `account` had not been already granted `role`, emits a {RoleGranted} event. Requirements: - the caller must have ``role``'s admin role."
      },
      "hasRole(bytes32,address)": {
        "details": "Returns `true` if `account` has been granted `role`."
      },
      "paused()": {
        "details": "Returns true if the contract is paused, and false otherwise."
      },
      "renounceRole(bytes32,address)": {
        "details": "Revokes `role` from the calling account. Roles are often managed via {grantRole} and {revokeRole}: this function's purpose is to provide a mechanism for accounts to lose their privileges if they are compromised (such as when a trusted device is misplaced). If the calling account had been granted `role`, emits a {RoleRevoked} event. Requirements: - the caller must be `account`."
      },
      "revokeRole(bytes32,address)": {
        "details": "Revokes `role` from `account`. If `account` had been granted `role`, emits a {RoleRevoked} event. Requirements: - the caller must have ``role``'s admin role."
      }
    },
    "version": 1
  },
  "userdoc": {
    "kind": "user",
    "methods": {
      "constructor": {
        "notice": "Network: BSC Testnet Aggregator: BNB/USD Address: 0x2514895c72f50D8bd4B4F9b1110F0D6bD2c97526"
      }
    },
    "version": 1
  }
}